:020000040800F2
:1000000000000320510700083507000837070008E3
:10001000390700083B0700083D0700080000000002
:100020000000000000000000000000003F07000882
:1000300041070008000000004307000845070008CA
:10004000A1070008A1070008A1070008A1070008F0
:10005000A1070008A1070008A1070008A1070008E0
:10006000A1070008A1070008A1070008A1070008D0
:10007000A1070008A1070008A1070008A1070008C0
:10008000A1070008A1070008A1070008A1070008B0
:10009000A1070008A1070008A1070008A1070008A0
:1000A000A1070008A1070008A1070008A107000890
:1000B000A1070008A1070008A1070008A107000880
:1000C000A1070008A1070008A1070008A107000870
:1000D000A1070008A1070008A1070008A107000860
:1000E000A1070008A1070008A1070008A107000850
:1000F000A1070008A1070008A1070008A107000840
:10010000A1070008A1070008A1070008A10700082F
:10011000A1070008A1070008A1070008A10700081F
:10012000A1070008A1070008A1070008A10700080F
:10013000A1070008A1070008A1070008A1070008FF
:10014000A1070008A1070008A1070008A1070008EF
:10015000A1070008A1070008A1070008A1070008DF
:10016000A1070008A1070008A1070008A1070008CF
:10017000A1070008A1070008A1070008000000006F
:10018000A1070008A1070008A1070008A1070008AF
:10019000A1070008A1070008A1070008A10700089F
:0C01A0000000000000000000A1070008A3
:1001AC0010B5054C237833B9044B13B10448AFF3A5
:1001BC0000800123237010BD3C04002000000000CF
:1001CC00E815000808B5034B1BB103490348AFF30E
:1001DC00008008BD0000000040040020E815000865
:1001EC0053B94AB9002908BF00281CBF4FF0FF3192
:1001FC004FF0FF3000F074B9ADF1080C6DE904CE8E
:10020C0000F006F8DDF804E0DDE9022304B07047E5
:10021C002DE9F047089E0D4604468846002B4DD12B
:10022C008A42944668D9B2FA82F252B101FA02F3C8
:10023C00C2F1200120FA01F10CFA02FC41EA030898
:10024C0094404FEA1C45210CB8FBF5FE1FFA8CF7C5
:10025C0005FB1E8341EA03430EFB07F199420BD9C0
:10026C001CEB03030EF1FF3080F01E81994240F22B
:10027C001B81AEF1020E63445B1AA4B2B3FBF5F022
:10028C0005FB103344EA034400FB07F7A7420AD9E5
:10029C001CEB040400F1FF3380F00881A74240F20C
:1002AC00058164440238E41B40EA0E4000211EB173
:1002BC00D4400023C6E90043BDE8F0878B4208D93F
:1002CC00002E00F0EE800021C6E900050846BDE8CE
:1002DC00F087B3FA83F100294AD1AB4202D38242B0
:1002EC0000F2F980841A65EB030301209846002E76
:1002FC00E2D0C6E90048DFE702B9FFDEB2FA82F2CB
:10030C00002A40F09180A1EB0C054FEA1C471FFA24
:10031C008CFE0121B5FBF7F307FB1350250C45EAC6
:10032C0000450EFB03F0A84208D91CEB050503F1B0
:10033C00FF3802D2A84200F2CB8043462D1AA4B259
:10034C00B5FBF7F007FB105544EA05440EFB00FE25
:10035C00A64508D91CEB040400F1FF3502D2A645D2
:10036C0000F2BB802846A4EB0E0440EA03409EE753
:10037C00C1F120078B4022FA07FC4CEA030C20FA4F
:10038C0007F405FA01F31C43FD404FEA1C4900FA3F
:10039C0001F3B5FBF9F8200C1FFA8CFE09FB18557C
:1003AC0040EA054508FB0EF0A84202FA01F20BD90F
:1003BC001CEB050508F1FF3A80F08880A84240F25A
:1003CC008580A8F1020865442D1AA4B2B5FBF9F09A
:1003DC0009FB105544EA054500FB0EFEAE4508D955
:1003EC001CEB050500F1FF346CD2AE456AD902381E
:1003FC00654440EA0840A0FB0294A5EB0E05A5421B
:10040C00C846A64656D353D05EB1B3EB080265EB93
:10041C000E0505FA07F722FA01F3CD401F43C6E992
:10042C0000750021BDE8F087C2F1200320FA03F12A
:10043C000CFA02FC25FA03F395400D434FEA1C47D6
:10044C001FFA8CFEB3FBF7F107FB11302B0C43EAC0
:10045C00004301FB0EF0984204FA02F408D91CEB9D
:10046C00030301F1FF382FD298422DD9023963448E
:10047C001B1AADB2B3FBF7F007FB103345EA03458B
:10048C0000FB0EF3AB4208D91CEB050500F1FF385D
:10049C0016D2AB4214D902386544ED1A40EA014138
:1004AC0038E73146304607E78646E5E61846FAE671
:1004BC004B45A9D2B9EB020864EB0C0E0138A3E74B
:1004CC004046EAE7204694E74146D1E7D0467BE731
:1004DC00023B654432E7084609E76444023842E7C8
:1004EC00704700BF08B50C480C4B03600F234360EA
:1004FC0000238360C360036143610376012242766B
:10050C008376C3760377437700F098F900B908BD7A
:10051C0000F06EF8FBE700BF5804002000640040B8
:10052C0000B589B0002303930493059306930793B6
:10053C000268154B9A4202D009B05DF804FB002109
:10054C00019103F5EA331A6C42F000721A641A6CCA
:10055C0002F000720192019A02911A6B42F00202AF
:10056C001A631B6B03F002030293029B4FF440735C
:10057C00039302230493032306930923079303A9EC
:10058C00024800F00BFBD7E7006400400004024077
:10059C0084B000220092154B196B41F002011963D3
:1005AC00196B01F00201009100990192196B41F055
:1005BC0001011963196B01F001010191019902927A
:1005CC00196B41F004011963196B01F004010291DC
:1005DC00029903921A6B42F080021A631B6B03F0B0
:1005EC0080030393039B04B0704700BF00380240A4
:1005FC0072B6FEE700B595B03022002108A800F0D5
:10060C002BFF002303930493059306930793019305
:10061C00224A116C41F080511164126C02F080522C
:10062C000192019A02931E4A116841F440411160F3
:10063C00126802F440420292029A022208920121AC
:10064C000B9110210C910E920F9308231093B4234D
:10065C00119312920423139308A800F0DBFBB0B99A
:10066C0000F09AFBA8B90F230393022304930023F1
:10067C0005934FF4A05306934FF480530793052131
:10068C0003A800F015FE30B915B05DF804FBFFF7B8
:10069C00AFFFFFF7ADFFFFF7ABFF00BF0038024025
:1006AC000070004010B588B000F09CF8FFF7A2FF76
:1006BC00FFF76EFFFFF716FF0C4C204600F064F9B5
:1006CC00002304930593082206924FF400720292C1
:1006DC000093019327228DF8002010228DF8012021
:1006EC006A4602A9204600F07DF9FEE75804002076
:1006FC0082B0002100910B4B5A6C42F480425A6438
:10070C005A6C02F480420092009A01911A6C42F0E9
:10071C0080521A641B6C03F080530193019B02B04E
:10072C00704700BF00380240FEE7FEE7FEE7FEE739
:10073C00FEE770477047704708B500F06DF808BDCC
:10074C0070470000DFF834D00D480E490E4A0023E4
:10075C0002E0D458C4500433C4188C42F9D30B4A69
:10076C000B4C002301E013600432A242FBD3FFF7D1
:10077C00E7FF00F04DFEFFF795FF704700000320E8
:10078C00000000203C040020281600083C04002037
:10079C0088040020FEE7000010B504460E4B1878C4
:1007AC004FF47A73B3FBF0F30C4A1068B0FBF3F020
:1007BC0000F0E0F968B90F2C01D901200AE0002201
:1007CC0021464FF0FF3000F09DF9054B1C600020D6
:1007DC0000E0012010BD00BF04000020000000203C
:1007EC000800002008B50B4B1A6842F400721A601E
:1007FC001A6842F480621A601A6842F480721A60B5
:10080C00032000F06DF90F20FFF7C6FFFFF770FF14
:10081C00002008BD003C0240034A1168034B1B78C2
:10082C000B441360704700BF8004002004000020BC
:10083C00014B1868704700BF80040020002800F0AE
:10084C00A18038B5044690F82030D3B122681368E3
:10085C0043F001031360FFF7EBFF054623685A686A
:10086C0012F0010F10D1FFF7E3FF401B0A28F5D956
:10087C00636A43F400336362052384F8203001205B
:10088C0038BDFFF74DFEE1E71A6822F002021A604C
:10089C00FFF7CEFF054623685A6812F0020F0DD001
:1008AC00FFF7C6FF401B0A28F5D9636A43F40033EF
:1008BC006362052384F820300120E1E7227E012ABF
:1008CC003DD01A6822F080021A60637E012B3BD067
:1008DC002268136823F040031360A37E012B39D0E8
:1008EC002268136823F020031360E37E012B37D0BA
:1008FC002268136843F010031360237F012B35D05B
:10090C002268136823F008031360637F012B33D034
:10091C002268136823F004031360A368E26813438E
:10092C0022691343626913436268013A21681343D5
:10093C00CB6100206062012384F82030A0E71A68A4
:10094C0042F080021A60C0E72268136843F040034B
:10095C001360C2E72268136843F020031360C4E7F6
:10096C002268136823F010031360C6E7226813682B
:10097C0043F008031360C8E72268136843F00403CC
:10098C001360CAE70120704770B5044690F82050F8
:10099C00EDB2012D06D0436A43F4002343620125D6
:1009AC00284670BD022380F820300268136823F0BB
:1009BC0001031360FFF73CFF064623685B6813F0E6
:1009CC00010F0CD0FFF734FF831B0A2BF5D9636A98
:1009DC0043F400336362052384F82030E0E70025FC
:1009EC006562DDE730B590F820C00468A4680CF1AE
:1009FC00FF3C5FFA8CFCBCF1010F6BD814F0E05F8C
:100A0C0062D0C4F3016CBCF1020F05D9436A43F404
:100A1C0000034362012062E0012404FA0CF41C6020
:100A2C008B68002B3DD10D68CB68046843EA4555B3
:100A3C000CF118031B01E55003680C690CF1180E3E
:100A4C0003EB0E135C600B7D012B35D0D1799379C0
:100A5C001B0443EA0163517943EA012314790168C9
:100A6C00234301EB0C11C1F88C31D17893781B0422
:100A7C0043EA0163517843EA0123117802680B437E
:100A8C0002EB0C12C2F8883102680CF1180C4FEA18
:100A9C000C1C52F80C3043F0010342F80C300020CF
:100AAC001DE04C6843EAC403CC6823430CF11804E2
:100ABC00240105682B51BFE7036803EB0E1359683B
:100ACC0041F480715960C1E7436A43F400134362F7
:100ADC00012004E0436A43F480234362012030BDCB
:100AEC00074AD36823F4E0631B041B0C000200F4D8
:100AFC00E060034343F0BF6343F40033D3607047BB
:100B0C0000ED00E000B5194BDB68C3F30223C3F121
:100B1C00070CBCF1040F28BF4FF0040C03F1040EBA
:100B2C00BEF1060F18D9033B4FF0FF3E0EFA0CFC3A
:100B3C0021EA0C0199400EFA03F322EA030319434C
:100B4C0000280BDB0901C9B200F1604000F56140DF
:100B5C0080F800135DF804FB0023E5E700F00F00BC
:100B6C000901C9B2024B1954F4E700BF00ED00E0D3
:100B7C0014ED00E00138B0F1807F0BD24FF0E02390
:100B8C005861054AF02182F8231000209861072251
:100B9C001A6170470120704700ED00E000230F2B15
:100BAC0000F2F18070B582B061E085685E000324CC
:100BBC00B44025EA0405CC68B4402C4384604568F5
:100BCC0025EA02054C68C4F300129A402A4342609D
:100BDC005BE0DC08083450F8246003F00702950051
:100BEC000F22AA4026EA020E0A69AA4042EA0E0225
:100BFC0040F824205DE0092200E0002202FA0EF207
:100C0C002A430234604D45F82420604A94686FEA08
:100C1C000C0224EA0C054E6816F4801F01D04CEA35
:100C2C0004055A4CA560E46802EA04054E6816F403
:100C3C00001F01D04CEA0405544CE560646802EADC
:100C4C0004054E6816F4003F01D04CEA04054F4CE5
:100C5C006560246822404D6815F4803F01D04CEA51
:100C6C0004024A4C226001330F2B00F28A800122CD
:100C7C009A400C6804EA020C32EA0404F3D14C6882
:100C8C0004F00304013C012C8FD94A6802F00302E2
:100C9C00032A09D0C4685D000322AA4024EA020496
:100CAC008A68AA402243C2604A6802F00302022A00
:100CBC008FD004684FEA430E032202FA0EF224EAA4
:100CCC0002044A6802F0030202FA0EF222430260A6
:100CDC004A6812F4403FC6D0002201922C4A546C50
:100CEC0044F480445464526C02F480420192019AA0
:100CFC009C08A51C244A52F8255003F003024FEA25
:100D0C00820E0F2202FA0EF225EA0205214A9042C7
:100D1C003FF473AF02F58062904222D002F58062FC
:100D2C00904220D002F5806290421ED002F5806283
:100D3C0090421CD002F5806290421AD002F580627B
:100D4C00904218D002F58062904216D002F5806273
:100D5C00904214D002F5806290423FF44CAF0A22CC
:100D6C004CE701224AE7022248E7032246E7042225
:100D7C0044E7052242E7062240E707223EE7082225
:100D8C003CE702B070BD704700380140003C0140A8
:100D9C00003802400000024010B582B000230193DD
:100DAC00194B1A6C42F080521A641B6C03F080537E
:100DBC000193019B154B01221A64FFF739FD044680
:100DCC00134B5B6813F4803F08D1FFF731FD001B18
:100DDC00B0F57A7FF4D9032002B010BD0B4B012281
:100DEC005A64FFF725FD0446094B5B6813F4003F7A
:100DFC0007D1FFF71DFD001BB0F57A7FF4D9032056
:100E0C00EAE70020E8E700BF0038024000000E428D
:100E1C0000700040002800F0E08170B582B00446FC
:100E2C00036813F0010F3BD09F4B9B6803F00C033E
:100E3C00042B2CD09C4B9B6803F00C03082B21D06B
:100E4C006368B3F5803F4FD0B3F5A02F52D0964BCB
:100E5C001A6822F480321A601A6822F480221A600E
:100E6C006368002B50D0FFF7E3FC05468E4B1B68E4
:100E7C0013F4003F14D1FFF7DBFC401B6428F5D9B9
:100E8C000320B1E1884B5B6813F4800FD8D0864BFC
:100E9C001B6813F4003F03D06368002B00F09F81A4
:100EAC00236813F0020F54D07F4B9B6813F00C0F88
:100EBC003ED07D4B9B6803F00C03082B33D0E368CA
:100ECC00002B68D0794B01221A60FFF7B1FC054664
:100EDC00754B1B6813F0020F54D1FFF7A9FC401B94
:100EEC000228F5D903207FE16F4A136843F480335D
:100EFC001360B5E76C4B1A6842F480221A601A68CA
:100F0C0042F480321A60ABE7FFF792FC0546664B61
:100F1C001B6813F4003FC3D0FFF78AFC401B642806
:100F2C00F5D9032060E1604B5B6813F4800FC6D1E8
:100F3C005D4B1B6813F0020F03D0E368012B40F0EC
:100F4C005081594A136823F0F803216943EAC1031D
:100F5C001360236813F0080F42D063696BB3534BD3
:100F6C000122C3F8802EFFF763FC05464E4B5B6FE6
:100F7C0013F0020F34D1FFF75BFC401B0228F5D9AC
:100F8C00032031E1484A136823F0F803216943EA4E
:100F9C00C1031360DDE7454B00221A60FFF748FCE4
:100FAC000546414B1B6813F0020FD2D0FFF740FCF3
:100FBC00401B0228F5D9032016E13C4B0022C3F854
:100FCC00802EFFF735FC0546374B5B6F13F0020F95
:100FDC0006D0FFF72DFC401B0228F5D9032003E1B6
:100FEC00236813F0040F77D02F4B1B6C13F0805F2A
:100FFC0033D1002301932C4B1A6C42F080521A64AB
:10100C001B6C03F080530193019B0125284B1B683B
:10101C0013F4807F23D0A368012B34D0052B38D058
:10102C00214B1A6F22F001021A671A6F22F0040288
:10103C001A67A368002B3DD0FFF7FAFB06461A4B44
:10104C001B6F13F0020F46D1FFF7F2FB801B41F22E
:10105C0088339842F3D90320C6E00025D6E7144A1A
:10106C00136843F480731360FFF7E2FB0646104BE2
:10107C001B6813F4807FCED1FFF7DAFB801B0228AC
:10108C00F5D90320B0E0084A136F43F0010313674E
:10109C00CFE7054B1A6F42F004021A671A6F42F041
:1010AC0001021A67C5E700BF003802400000474242
:1010BC0000700040FFF7BCFB0646524B1B6F13F051
:1010CC00020F08D0FFF7B4FB801B41F28833984223
:1010DC00F3D9032088E0EDB9A369002B00F08380DD
:1010EC00484A926802F00C02082A51D0022B17D001
:1010FC00454B00221A66FFF79BFB0446414B1B68CD
:10110C0013F0007F42D0FFF793FB001B0228F5D9A8
:10111C00032069E03B4A136C23F080531364DBE734
:10112C00394B00221A66FFF783FB0546354B1B68CB
:10113C0013F0007F06D0FFF77BFB401B0228F5D98C
:10114C00032051E0E369226A1343626A43EA821383
:10115C00A26A5208013A43EA0243E26A43EA026392
:10116C00284A5360284B01221A66FFF761FB04469C
:10117C00244B1B6813F0007F06D1FFF759FB001BB3
:10118C000228F5D903202FE000202DE000202BE0D1
:10119C00012B2BD01B4B5B6803F48001E26991425D
:1011AC0026D103F03F02216A8A4223D1616A47F6B5
:1011BC00C0721A40B2EB811F1ED103F44031A26AF7
:1011CC005208013AB1EB024F18D103F07063E26A96
:1011DC00B3EB026F14D1002006E001207047012010
:1011EC0002E0012000E0002002B070BD0120FBE70E
:1011FC000120F9E70120F7E70120F5E70120F3E7EB
:10120C000120F1E7003802400000474208B5254BA9
:10121C009B6803F00C03042B3FD0082B3FD1214BD0
:10122C005A6802F03F025B6813F4800F12D01D4B1A
:10123C005968C1F388111C480023A1FB0001FEF77B
:10124C00CFFF184B5B68C3F3014301335B00B0FB6A
:10125C00F3F025E0134B5968C1F3881C4FEA4C118D
:10126C00B1EB0C006EEB0E0E4FEA8E1343EA90635B
:10127C008101091A63EB0E03DB0043EA5173C900C9
:10128C0011EB0C0C43F10003990200234FEA8C2064
:10129C0041EA9C51FEF7A4FFD3E7034800E0034862
:1012AC0008BD00BF00380240001BB7000024F4004A
:1012BC00002800F09B8070B50D4604464F4B1B6810
:1012CC0003F00F038B4208D2CBB24C4A1370136855
:1012DC0003F00F038B4240F08B80236813F0020F56
:1012EC0017D013F0040F04D0454A936843F4E0532D
:1012FC009360236813F0080F04D0414A936843F4B9
:10130C00604393603E4A936823F0F003A1680B435B
:10131C009360236813F0010F32D06368012B21D046
:10132C009A1E012A25D9364A126812F0020F61D092
:10133C0033498A6822F0030213438B60FFF778FA73
:10134C0006462F4B9B6803F00C036268B3EB820FCD
:10135C0016D0FFF76DFA801B41F288339842F0D912
:10136C00032042E0264A126812F4003FE0D101202B
:10137C003BE0234A126812F0007FD9D1012034E0FF
:10138C001E4B1B6803F00F03AB4207D9EAB21B4B91
:10139C001A701B6803F00F03AB422DD1236813F0B6
:1013AC00040F06D0164A936823F4E053E1680B430C
:1013BC009360236813F0080F07D0114A936823F445
:1013CC006043216943EAC1039360FFF71FFF0C4B95
:1013DC009B68C3F303130B4AD35CD8400A4B1860C9
:1013EC000A4B1868FFF7D8F9002070BD0120704730
:1013FC000120FAE70120F8E70120F6E7003C024063
:10140C0000380240001600080000002008000020F0
:10141C0070B50D4E0D4D761BB61006D0002455F848
:10142C00043B01349847A642F9D1094E094D761B6D
:10143C0000F0D4F8B61006D0002455F8043B013463
:10144C009847A642F9D170BD1C1600081C1600085E
:10145C00241600081C160008830730B548D0541E0B
:10146C00002A3FD0CAB2034601E0013C3AD303F84C
:10147C00012B9D07F9D1032C2DD9CDB245EA0525B9
:10148C000F2C45EA054536D9A4F1100222F00F0CB9
:10149C0003F1200EE6444FEA121C03F1100242E95C
:1014AC00045542E9025510327245F8D10CF1010293
:1014BC0014F00C0F03EB021204F00F0C13D0ACF170
:1014CC00040323F003030433134442F8045B9342F4
:1014DC00FBD10CF003042CB1CAB21C4403F8012B51
:1014EC009C42FBD130BD64461346002CF4D1F9E785
:1014FC0003461446BFE71A46A446E0E7024B13B175
:10150C00024800F005B870470000000029150008DB
:10151C00002301461A46184600F01AB838B5084B95
:10152C00084D5B1B9C1007D0043B1D44013C55F837
:10153C0004399847002CF9D1BDE8384000F054B874
:10154C002816000824160008704700BF704700BF1B
:10155C002DE9F047DFF87CA00646DAF80000984643
:10156C000F469146FFF7F0FF1B4B1B68D3F8484121
:10157C0024B365681F2D26DC5EB96B1C0235DAF8C6
:10158C000000636044F82570FFF7E0FF0020BDE821
:10159C00F08704EB85010123C1F88890D4F88821E9
:1015AC00AB401A43022EC4F88821C1F80881E4D15B
:1015BC00D4F88C211343C4F88C31DEE703F5A67400
:1015CC00C3F84841D5E7DAF80000FFF7BFFF4FF04A
:1015DC00FF30DCE73804002010160008F8B500BF17
:1015EC00F8BC08BC9E467047F8B500BFF8BC08BCF8
:0415FC009E46704750
:1016000000000000000000000102030406070809B2
:0416100010000020A6
:0816140008ECFF7F010000005B
:08161C0009150008D1010008C6
:04162400AD0100080C
:101628000024F40001000000100000000000000089
:1016380000000000FC02002064030020CC0300200E
:101648000000000000000000000000000000000092
:101658000000000000000000000000000000000082
:101668000000000000000000000000000000000072
:101678000000000000000000000000000000000062
:101688000000000000000000000000000000000052
:101698000000000000000000000000000000000042
:1016A8000000000000000000000000000000000032
:1016B8000000000000000000000000000000000022
:1016C8000000000000000000000000000000000012
:1016D8000000000000000000010000000000000001
:1016E8000E33CDAB34126DE6ECDE05000B000000C6
:1016F80000000000000000000000000000000000E2
:1017080000000000000000000000000000000000D1
:1017180000000000000000000000000000000000C1
:1017280000000000000000000000000000000000B1
:0C1A5800000000000000000084040020DA
:040000050800075197
:00000001FF
